:020000040800F2
:1000000000500020C5010008C9010008CB0100080C
:10001000E1010008E3010008F90100080000000008
:100020000000000000000000000000000F020008B7
:100030001102000800000000130200082D0600084D
:1000400029020008290200082902000829020008E4
:1000500029020008290200081904000829020008E2
:1000600029020008290200082902000829020008C4
:1000700029020008290200082902000829020008B4
:1000800029020008290200082902000829020008A4
:100090002902000829020008290200082902000894
:1000A0002902000829020008290200082902000884
:1000B0002902000829020008290200082902000874
:1000C0002902000829020008290200082902000864
:1000D0002902000829020008290200082902000854
:1000E0002902000829020008290200080000000077
:1000F0000000000000000000000000000000000000
:1001000000000000000000005FF808F107B500F0F3
:10011000ADF8214A214B22498B4226D30021214BA5
:10012000214A934226D300F0ADF801A9684600F0B9
:1001300095F800251D4E1E4CA41BA410AC421CDCDF
:1001400000251C4E1C4CA41BA410AC421ADCDDE99B
:10015000000100F0FDFA0646184D194C641BA4106E
:10016000002C14DC304600F075F852F8040F43F808
:10017000040BD1E743F8041BD3E756F82530984722
:100180000135DBE756F8253098470135DDE7013CBE
:1001900055F824309847E3E79C070008000000204A
:1001A0001C0000201C000020F80000205402000861
:1001B00054020008540200085402000854020008C7
:1001C0005402000814480047FEE71EF0040F0CBF5D
:1001D000EFF30880EFF309807146104A1047FEE7FD
:1001E000FEE71EF0040F0CBFEFF30880EFF3098069
:1001F00071460B4A1047FEE71EF0040F0CBFEFF3E9
:100200000880EFF309807146064A1047FEE7FEE7D3
:10021000FEE7FEE7704700000D010008DF0100085F
:0A022000F70100080D020008FEE7D8
:10022C00A0070008000000201C000020A007000808
:10023C0000000000000000001C000020F80000205E
:08024C000000000000000000AA
:1002540008B500F017F8000001230360014B0B60A0
:10026400704700BF0000002008B500F01DF8024AE6
:10027400024B9A6008BD00BF0000000800ED00E0DA
:1002840000F08AB8BFF34F8F0549064BCA6802F4E1
:10029400E0621343CB60BFF34F8F00BFFDE700BFA5
:1002A40000ED00E00400FA05374B82B01A6842F012
:1002B40001021A605968354A0A405A601A6822F0E5
:1002C400847222F480321A601A6822F480221A603E
:1002D4005A6822F4FE025A604FF41F029A60002208
:1002E400009201921A6842F480321A601A6802F489
:1002F40000320192009A01320092019A1AB9009ACE
:10030400B2F5A06FF2D11A6812F4003218BF0122BC
:100314000192019A012A30D11D4A116841F010015D
:100324001160116821F003011160116841F00201AC
:1003340011605A685A605A685A605A6842F4806276
:100344005A605A6822F47C125A605A6842F4E812DD
:100354005A601A6842F080721A601A689201FCD5D9
:100364005A6822F003025A605A6842F002025A6044
:100374005A6802F00C02082AFAD14FF00062054BC9
:100384009A6002B0704700BF001002400000FFF8FE
:100394000020024000ED00E0104B11495A6802F0C1
:1003A4000C02082A0AD00F4A0A605B680E4AC3F39B
:1003B4000313D25C0B68D3400B6070475A685868CB
:1003C400C2F38342C00302F1020202D4074842434B
:1003D400EAE758688003F9D40248F8E700100240BD
:1003E4001800002000127A000800002000093D00D7
:1003F400044B1A6842F001021A60DA6842F0010202
:10040400DA60704700040140014B1860704700BF78
:100414002000002008B5044B1B689847034A536921
:1004240043F00103536108BD200000200004014093
:10043400012810B524D002D3022841D010BD0729C9
:100444000CD80F20244C890000FA01F3206802FA2A
:1004540001F120EA030001432160EFE70F29EDD801
:10046400A1F108000F211D4CC0B2800001FA00F375
:10047400216802FA00F021EA030108432060DDE765
:1004840007290BD8164C89000F2303FA01F02368BF
:1004940002FA01F123EA00031943DDE70F29CDD85D
:1004A400A1F108030F210F4CDBB29B0001FA03F00A
:1004B400216802FA03F321EA00010B432360BDE73C
:1004C400072902D88900084CDEE70F29B6D8083975
:1004D400C9B28900054CD7E700080140040801406F
:1004E400000C0140040C01400010014004100140C4
:1004F400012814D002D302281FD07047012A05D145
:10050400124B8A4019680A431A60704732B90F487F
:10051400012203688A4023EA020303607047012A28
:1005240001D10B4BEDE7002AF8D1094B00FA01F297
:10053400186820EA020018607047012A01D1054BAF
:10054400DFE7002AEAD10348E2E700BF0C080140D4
:100554000C0C01400C1001401F2805D8012303FA9C
:1005640000F0064B186070473B28FCD80123203864
:10057400C0B203FA00F0024BF4E700BF00E100E070
:1005840004E100E04FF480310122024BC3E9001280
:10059400704700BF001002401F290CD801280BD05F
:1005A40002D302280ED07047074A012303FA01F050
:1005B4001368034313607047044B88401968084369
:1005C40018607047024AF0E7141002401C10024001
:1005D400181002400422014B1A60704710E000E03A
:1005E40010B50024094B1A6822F001021A609C60BD
:1005F40058601A6842F001021A60054A1160054AFF
:1006040014701A6842F002021A6010BD10E000E093
:100614002400002028000020024B58689B68C01A60
:10062400704700BF10E000E008B50A4B1A7852B9D1
:10063400094B196821F002011960196841F00101A0
:1006440019605A609A60054B1B689847024B1B68F7
:1006540008BD00BF2800002010E000E024000020B6
:1006640038B50D4C237833B90C490D48FFF7B8FF62
:100674000123237038BD0B4C2578FFF7CDFF0A4BBF
:10068400EDB243F8250005490548FFF7A9FF237893
:100694000133DBB2EDE700BFF6000020D506000809
:1006A40040420F00F50000202C000020074B1B786F
:1006B400DBB2452B06D0462B07D101221146002080
:1006C400FFF716BF00220121F9E77047F40000206C
:1006D400F8B5002342F20F721848194C03702168D0
:1006E40091421FD943F2B062216891421AD8012580
:1006F40044F2672645F6D81703F1110154F821C0D6
:1007040005FA03F2B44552B213D954F82110B94290
:100714000FD801780A43D2B20133082B0270EBD10F
:10072400FFF7C4FF0023074A1370074A23601370BE
:10073400F8BD017821EA0202EEE700BFF4000020D0
:100744002C000020F6000020F500002008B5FFF77B
:1007540019FF02210846FFF71FFF00221146104629
:10076400FFF766FE022201210020FFF761FE02224C
:1007740000201146FFF75CFE022203210020FFF750
:1007840057FE0548FFF740FEFFF732FE0620FFF74D
:0C079400E3FEFFF71FFFFEE7650600080C
:1007A0001C0000200000000000000000000000000D
:0C07B000010203040607080900A24A0425
:040000050800010DE1
:00000001FF
